{
  "_format": "hh-sol-artifact-1",
  "contractName": "GuessNumber",
  "sourceName": "contracts/GuessNumber.sol",
  "abi": [
    {
      "inputs": [
        {
          "internalType": "bytes32",
          "name": "_nonceHash",
          "type": "bytes32"
        },
        {
          "internalType": "bytes32",
          "name": "_nonceNumHash",
          "type": "bytes32"
        }
      ],
      "stateMutability": "payable",
      "type": "constructor"
    },
    {
      "inputs": [],
      "name": "getWinnerAddresses",
      "outputs": [
        {
          "internalType": "address payable[]",
          "name": "winUsers",
          "type": "address[]"
        }
      ],
      "stateMutability": "view",
      "type": "function"
    },
    {
      "inputs": [
        {
          "internalType": "uint16",
          "name": "_num",
          "type": "uint16"
        }
      ],
      "name": "guess",
      "outputs": [],
      "stateMutability": "payable",
      "type": "function"
    },
    {
      "inputs": [],
      "name": "host",
      "outputs": [
        {
          "internalType": "address",
          "name": "",
          "type": "address"
        }
      ],
      "stateMutability": "view",
      "type": "function"
    },
    {
      "inputs": [],
      "name": "initDepositValue",
      "outputs": [
        {
          "internalType": "uint256",
          "name": "",
          "type": "uint256"
        }
      ],
      "stateMutability": "view",
      "type": "function"
    },
    {
      "inputs": [],
      "name": "nonceHash",
      "outputs": [
        {
          "internalType": "bytes32",
          "name": "",
          "type": "bytes32"
        }
      ],
      "stateMutability": "view",
      "type": "function"
    },
    {
      "inputs": [],
      "name": "nonceNumHash",
      "outputs": [
        {
          "internalType": "bytes32",
          "name": "",
          "type": "bytes32"
        }
      ],
      "stateMutability": "view",
      "type": "function"
    },
    {
      "inputs": [
        {
          "internalType": "bytes32",
          "name": "_nonce",
          "type": "bytes32"
        },
        {
          "internalType": "uint16",
          "name": "_num",
          "type": "uint16"
        }
      ],
      "name": "reveal",
      "outputs": [],
      "stateMutability": "nonpayable",
      "type": "function"
    },
    {
      "inputs": [
        {
          "internalType": "address payable",
          "name": "_to",
          "type": "address"
        },
        {
          "internalType": "uint256",
          "name": "_amount",
          "type": "uint256"
        }
      ],
      "name": "transfer",
      "outputs": [],
      "stateMutability": "nonpayable",
      "type": "function"
    },
    {
      "inputs": [
        {
          "internalType": "uint16",
          "name": "_num",
          "type": "uint16"
        }
      ],
      "name": "winningGame",
      "outputs": [
        {
          "internalType": "address payable[]",
          "name": "winUsers",
          "type": "address[]"
        }
      ],
      "stateMutability": "nonpayable",
      "type": "function"
    }
  ],
  "bytecode": "0x608060405260405162001cfa38038062001cfa8339818101604052810190620000299190620000c7565b33600660006101000a81548173ffffffffffffffffffffffffffffffffffffffff021916908373ffffffffffffffffffffffffffffffffffffffff16021790555081600081905550806001819055503460028190555050506200010e565b600080fd5b6000819050919050565b620000a1816200008c565b8114620000ad57600080fd5b50565b600081519050620000c18162000096565b92915050565b60008060408385031215620000e157620000e062000087565b5b6000620000f185828601620000b0565b92505060206200010485828601620000b0565b9150509250929050565b611bdc806200011e6000396000f3fe6080604052600436106100865760003560e01c80639414e4df116100595780639414e4df14610147578063a9059cbb14610163578063c78096e41461018c578063ca520946146101b7578063f437bc59146101e257610086565b8063099c47311461008b5780631ef9c56f146100b457806362b934cc146100df5780637faeb7c31461010a575b600080fd5b34801561009757600080fd5b506100b260048036038101906100ad9190611216565b61020d565b005b3480156100c057600080fd5b506100c96104c4565b6040516100d69190611346565b60405180910390f35b3480156100eb57600080fd5b506100f46105c3565b6040516101019190611377565b60405180910390f35b34801561011657600080fd5b50610131600480360381019061012c9190611392565b6105c9565b60405161013e9190611346565b60405180910390f35b610161600480360381019061015c9190611392565b610b5c565b005b34801561016f57600080fd5b5061018a60048036038101906101859190611421565b610f5d565b005b34801561019857600080fd5b506101a161100e565b6040516101ae9190611377565b60405180910390f35b3480156101c357600080fd5b506101cc611014565b6040516101d99190611470565b60405180910390f35b3480156101ee57600080fd5b506101f761101a565b60405161020491906114ac565b60405180910390f35b600660009054906101000a900473ffffffffffffffffffffffffffffffffffffffff1673ffffffffffffffffffffffffffffffffffffffff163373ffffffffffffffffffffffffffffffffffffffff161461029d576040517f08c379a000000000000000000000000000000000000000000000000000000000815260040161029490611524565b60405180910390fd5b6002600480549050146102e5576040517f08c379a00000000000000000000000000000000000000000000000000000000081526004016102dc90611590565b60405180910390fd5b60001515600360009054906101000a900460ff1615151461033b576040517f08c379a0000000000000000000000000000000000000000000000000000000008152600401610332906115fc565b60405180910390fd5b6000548260405160200161034f9190611377565b60405160208183030381529060405280519060200120146103a5576040517f08c379a000000000000000000000000000000000000000000000000000000000815260040161039c9061168e565b60405180910390fd5b60015482826040516020016103bb9291906116bd565b6040516020818303038152906040528051906020012014610411576040517f08c379a000000000000000000000000000000000000000000000000000000000815260040161040890611758565b60405180910390fd5b600061041c826105c9565b9050600081514761042d91906117d6565b905060005b82518161ffff1610156104a25761046782848361ffff168151811061045a57610459611807565b5b6020026020010151611040565b61048f838261ffff168151811061048157610480611807565b5b602002602001015183610f5d565b808061049a90611836565b915050610432565b506001600360006101000a81548160ff02191690831515021790555050505050565b606060005b6007805490508161ffff1610156105bf57600460078261ffff16815481106104f4576104f3611807565b5b90600052602060002090601091828204019190066002029054906101000a900461ffff1661ffff168154811061052d5761052c611807565b5b9060005260206000200160000160009054906101000a900473ffffffffffffffffffffffffffffffffffffffff16828261ffff168151811061057257610571611807565b5b602002602001019073ffffffffffffffffffffffffffffffffffffffff16908173ffffffffffffffffffffffffffffffffffffffff168152505080806105b790611836565b9150506104c9565b5090565b60015481565b606060008261ffff1610806105e457506103e88261ffff1610155b1561067757600580548060200260200160405190810160405280929190818152602001828054801561066b57602002820191906000526020600020905b8160009054906101000a900473ffffffffffffffffffffffffffffffffffffffff1673ffffffffffffffffffffffffffffffffffffffff1681526020019060010190808311610621575b50505050509050610b57565b60008261ffff16600460008154811061069357610692611807565b5b9060005260206000200160000160149054906101000a900461ffff1661ffff16116106f95760046000815481106106cd576106cc611807565b5b9060005260206000200160000160149054906101000a900461ffff16836106f49190611861565b610736565b82600460008154811061070f5761070e611807565b5b9060005260206000200160000160149054906101000a900461ffff166107359190611861565b5b905060008361ffff16600460018154811061075457610753611807565b5b9060005260206000200160000160149054906101000a900461ffff1661ffff16116107ba57600460018154811061078e5761078d611807565b5b9060005260206000200160000160149054906101000a900461ffff16846107b59190611861565b6107f7565b8360046001815481106107d0576107cf611807565b5b9060005260206000200160000160149054906101000a900461ffff166107f69190611861565b5b90508061ffff168261ffff1611156108b357600860046001815481106108205761081f611807565b5b9060005260206000200160000160009054906101000a900473ffffffffffffffffffffffffffffffffffffffff169080600181540180825580915050600190039060005260206000200160009091909190916101000a81548173ffffffffffffffffffffffffffffffffffffffff021916908373ffffffffffffffffffffffffffffffffffffffff160217905550610ab9565b8061ffff168261ffff161415610a1257600860046000815481106108da576108d9611807565b5b9060005260206000200160000160009054906101000a900473ffffffffffffffffffffffffffffffffffffffff169080600181540180825580915050600190039060005260206000200160009091909190916101000a81548173ffffffffffffffffffffffffffffffffffffffff021916908373ffffffffffffffffffffffffffffffffffffffff1602179055506008600460018154811061097f5761097e611807565b5b9060005260206000200160000160009054906101000a900473ffffffffffffffffffffffffffffffffffffffff169080600181540180825580915050600190039060005260206000200160009091909190916101000a81548173ffffffffffffffffffffffffffffffffffffffff021916908373ffffffffffffffffffffffffffffffffffffffff160217905550610ab8565b60086004600081548110610a2957610a28611807565b5b9060005260206000200160000160009054906101000a900473ffffffffffffffffffffffffffffffffffffffff169080600181540180825580915050600190039060005260206000200160009091909190916101000a81548173ffffffffffffffffffffffffffffffffffffffff021916908373ffffffffffffffffffffffffffffffffffffffff1602179055505b5b610acb8261ffff168261ffff166110dc565b6008805480602002602001604051908101604052809291908181526020018280548015610b4d57602002820191906000526020600020905b8160009054906101000a900473ffffffffffffffffffffffffffffffffffffffff1673ffffffffffffffffffffffffffffffffffffffff1681526020019060010190808311610b03575b5050505050925050505b919050565b8060006001905060008261ffff161080610b7c57506103e88261ffff1610155b15610b8657600090505b6001151581151514610bcd576040517f08c379a0000000000000000000000000000000000000000000000000000000008152600401610bc4906118e1565b60405180910390fd5b6000805b6005805490508160ff161015610c6e573373ffffffffffffffffffffffffffffffffffffffff1660058260ff1681548110610c0f57610c0e611807565b5b9060005260206000200160009054906101000a900473ffffffffffffffffffffffffffffffffffffffff1673ffffffffffffffffffffffffffffffffffffffff161415610c5b57600191505b8080610c669061190e565b915050610bd1565b506000151581151514610cb6576040517f08c379a0000000000000000000000000000000000000000000000000000000008152600401610cad90611984565b60405180910390fd5b836000805b6004805490508160ff161015610d25578261ffff1660048260ff1681548110610ce757610ce6611807565b5b9060005260206000200160000160149054906101000a900461ffff1661ffff161415610d1257600191505b8080610d1d9061190e565b915050610cbb565b506000151581151514610d6d576040517f08c379a0000000000000000000000000000000000000000000000000000000008152600401610d64906119f0565b60405180910390fd5b60001515600360009054906101000a900460ff16151514610dc3576040517f08c379a0000000000000000000000000000000000000000000000000000000008152600401610dba906115fc565b60405180910390fd5b6002543414610e07576040517f08c379a0000000000000000000000000000000000000000000000000000000008152600401610dfe90611a82565b60405180910390fd5b600460405180606001604052803373ffffffffffffffffffffffffffffffffffffffff1681526020018861ffff168152602001600115158152509080600181540180825580915050600190039060005260206000200160009091909190915060008201518160000160006101000a81548173ffffffffffffffffffffffffffffffffffffffff021916908373ffffffffffffffffffffffffffffffffffffffff16021790555060208201518160000160146101000a81548161ffff021916908361ffff16021790555060408201518160000160166101000a81548160ff02191690831515021790555050506005339080600181540180825580915050600190039060005260206000200160009091909190916101000a81548173ffffffffffffffffffffffffffffffffffffffff021916908373ffffffffffffffffffffffffffffffffffffffff160217905550505050505050565b60008273ffffffffffffffffffffffffffffffffffffffff1682604051610f8390611ad3565b60006040518083038185875af1925050503d8060008114610fc0576040519150601f19603f3d011682016040523d82523d6000602084013e610fc5565b606091505b5050905080611009576040517f08c379a000000000000000000000000000000000000000000000000000000000815260040161100090611b34565b60405180910390fd5b505050565b60005481565b60025481565b600660009054906101000a900473ffffffffffffffffffffffffffffffffffffffff1681565b6110d88282604051602401611056929190611b54565b6040516020818303038152906040527f58eb860c000000000000000000000000000000000000000000000000000000007bffffffffffffffffffffffffffffffffffffffffffffffffffffffff19166020820180517bffffffffffffffffffffffffffffffffffffffffffffffffffffffff8381831617835250505050611178565b5050565b61117482826040516024016110f2929190611b7d565b6040516020818303038152906040527f6c0f6980000000000000000000000000000000000000000000000000000000007bffffffffffffffffffffffffffffffffffffffffffffffffffffffff19166020820180517bffffffffffffffffffffffffffffffffffffffffffffffffffffffff8381831617835250505050611178565b5050565b60008151905060006a636f6e736f6c652e6c6f679050602083016000808483855afa5050505050565b600080fd5b6000819050919050565b6111b9816111a6565b81146111c457600080fd5b50565b6000813590506111d6816111b0565b92915050565b600061ffff82169050919050565b6111f3816111dc565b81146111fe57600080fd5b50565b600081359050611210816111ea565b92915050565b6000806040838503121561122d5761122c6111a1565b5b600061123b858286016111c7565b925050602061124c85828601611201565b9150509250929050565b600081519050919050565b600082825260208201905092915050565b6000819050602082019050919050565b600073ffffffffffffffffffffffffffffffffffffffff82169050919050565b60006112ad82611282565b9050919050565b6112bd816112a2565b82525050565b60006112cf83836112b4565b60208301905092915050565b6000602082019050919050565b60006112f382611256565b6112fd8185611261565b935061130883611272565b8060005b8381101561133957815161132088826112c3565b975061132b836112db565b92505060018101905061130c565b5085935050505092915050565b6000602082019050818103600083015261136081846112e8565b905092915050565b611371816111a6565b82525050565b600060208201905061138c6000830184611368565b92915050565b6000602082840312156113a8576113a76111a1565b5b60006113b684828501611201565b91505092915050565b6113c8816112a2565b81146113d357600080fd5b50565b6000813590506113e5816113bf565b92915050565b6000819050919050565b6113fe816113eb565b811461140957600080fd5b50565b60008135905061141b816113f5565b92915050565b60008060408385031215611438576114376111a1565b5b6000611446858286016113d6565b92505060206114578582860161140c565b9150509250929050565b61146a816113eb565b82525050565b60006020820190506114856000830184611461565b92915050565b600061149682611282565b9050919050565b6114a68161148b565b82525050565b60006020820190506114c1600083018461149d565b92915050565b600082825260208201905092915050565b7f6f6e6c792074686520686f737420697320616c6c6f7765640000000000000000600082015250565b600061150e6018836114c7565b9150611519826114d8565b602082019050919050565b6000602082019050818103600083015261153d81611501565b9050919050565b7f7265717569726520322070616c7920677573736520746865206e756d62657200600082015250565b600061157a601f836114c7565b915061158582611544565b602082019050919050565b600060208201905081810360008301526115a98161156d565b9050919050565b7f7468652067616d652068617320636f6e636c7564656400000000000000000000600082015250565b60006115e66016836114c7565b91506115f1826115b0565b602082019050919050565b60006020820190508181036000830152611615816115d9565b9050919050565b7f746865206e6f6e6365206973206e6f7420657175616c207769746820696e697460008201527f206e6f6e63650000000000000000000000000000000000000000000000000000602082015250565b60006116786026836114c7565b91506116838261161c565b604082019050919050565b600060208201905081810360008301526116a78161166b565b9050919050565b6116b7816111dc565b82525050565b60006040820190506116d26000830185611368565b6116df60208301846116ae565b9392505050565b7f746865206e756d626572206973206e6f7420657175616c207769746820696e6960008201527f74206e756d626572000000000000000000000000000000000000000000000000602082015250565b60006117426028836114c7565b915061174d826116e6565b604082019050919050565b6000602082019050818103600083015261177181611735565b9050919050565b7f4e487b7100000000000000000000000000000000000000000000000000000000600052601260045260246000fd5b7f4e487b7100000000000000000000000000000000000000000000000000000000600052601160045260246000fd5b60006117e1826113eb565b91506117ec836113eb565b9250826117fc576117fb611778565b5b828204905092915050565b7f4e487b7100000000000000000000000000000000000000000000000000000000600052603260045260246000fd5b6000611841826111dc565b915061ffff821415611856576118556117a7565b5b600182019050919050565b600061186c826111dc565b9150611877836111dc565b92508282101561188a576118896117a7565b5b828203905092915050565b7f746865206e756d626572206973206f7574206f662072616e6765000000000000600082015250565b60006118cb601a836114c7565b91506118d682611895565b602082019050919050565b600060208201905081810360008301526118fa816118be565b9050919050565b600060ff82169050919050565b600061191982611901565b915060ff82141561192d5761192c6117a7565b5b600182019050919050565b7f6f6e6c79206775657373206f6e63650000000000000000000000000000000000600082015250565b600061196e600f836114c7565b915061197982611938565b602082019050919050565b6000602082019050818103600083015261199d81611961565b9050919050565b7f746865206e756d62657220686173206265656e20677565737365640000000000600082015250565b60006119da601b836114c7565b91506119e5826119a4565b602082019050919050565b60006020820190508181036000830152611a09816119cd565b9050919050565b7f646f6e6e6f742073656e64207468652073616d652076616c756520776974682060008201527f74686520686f7374000000000000000000000000000000000000000000000000602082015250565b6000611a6c6028836114c7565b9150611a7782611a10565b604082019050919050565b60006020820190508181036000830152611a9b81611a5f565b9050919050565b600081905092915050565b50565b6000611abd600083611aa2565b9150611ac882611aad565b600082019050919050565b6000611ade82611ab0565b9150819050919050565b7f4661696c656420746f2073656e64204574686572000000000000000000000000600082015250565b6000611b1e6014836114c7565b9150611b2982611ae8565b602082019050919050565b60006020820190508181036000830152611b4d81611b11565b9050919050565b6000604082019050611b696000830185611461565b611b76602083018461149d565b9392505050565b6000604082019050611b926000830185611461565b611b9f6020830184611461565b939250505056fea26469706673582212205ba319ae39887031895fa502604fd6c163f365bb0273151607c167d398ab65cc64736f6c63430008090033",
  "linkReferences": {},
  "deployedLinkReferences": {}
}