{
  "_format": "hh-sol-artifact-1",
  "contractName": "GuessNumber",
  "sourceName": "contracts/GuessNumber.sol",
  "abi": [
    {
      "inputs": [
        {
          "internalType": "bytes32",
          "name": "_nonceHash",
          "type": "bytes32"
        },
        {
          "internalType": "bytes32",
          "name": "_nonceNumHash",
          "type": "bytes32"
        }
      ],
      "stateMutability": "payable",
      "type": "constructor"
    },
    {
      "anonymous": false,
      "inputs": [
        {
          "indexed": false,
          "internalType": "address",
          "name": "caller",
          "type": "address"
        },
        {
          "indexed": false,
          "internalType": "uint256",
          "name": "amount",
          "type": "uint256"
        },
        {
          "indexed": false,
          "internalType": "string",
          "name": "message",
          "type": "string"
        }
      ],
      "name": "Received",
      "type": "event"
    },
    {
      "stateMutability": "payable",
      "type": "fallback"
    },
    {
      "inputs": [],
      "name": "getWinnerAddresses",
      "outputs": [
        {
          "internalType": "address payable[]",
          "name": "winUsers",
          "type": "address[]"
        }
      ],
      "stateMutability": "view",
      "type": "function"
    },
    {
      "inputs": [
        {
          "internalType": "uint16",
          "name": "_num",
          "type": "uint16"
        }
      ],
      "name": "guess",
      "outputs": [],
      "stateMutability": "payable",
      "type": "function"
    },
    {
      "inputs": [],
      "name": "host",
      "outputs": [
        {
          "internalType": "address",
          "name": "",
          "type": "address"
        }
      ],
      "stateMutability": "view",
      "type": "function"
    },
    {
      "inputs": [],
      "name": "initDepositValue",
      "outputs": [
        {
          "internalType": "uint256",
          "name": "",
          "type": "uint256"
        }
      ],
      "stateMutability": "view",
      "type": "function"
    },
    {
      "inputs": [],
      "name": "nonceHash",
      "outputs": [
        {
          "internalType": "bytes32",
          "name": "",
          "type": "bytes32"
        }
      ],
      "stateMutability": "view",
      "type": "function"
    },
    {
      "inputs": [],
      "name": "nonceNumHash",
      "outputs": [
        {
          "internalType": "bytes32",
          "name": "",
          "type": "bytes32"
        }
      ],
      "stateMutability": "view",
      "type": "function"
    },
    {
      "inputs": [
        {
          "internalType": "bytes32",
          "name": "_nonce",
          "type": "bytes32"
        },
        {
          "internalType": "uint16",
          "name": "_num",
          "type": "uint16"
        }
      ],
      "name": "reveal",
      "outputs": [],
      "stateMutability": "nonpayable",
      "type": "function"
    },
    {
      "inputs": [
        {
          "internalType": "address payable",
          "name": "_to",
          "type": "address"
        },
        {
          "internalType": "uint256",
          "name": "_amount",
          "type": "uint256"
        }
      ],
      "name": "transfer",
      "outputs": [],
      "stateMutability": "nonpayable",
      "type": "function"
    },
    {
      "inputs": [
        {
          "internalType": "uint16",
          "name": "_num",
          "type": "uint16"
        }
      ],
      "name": "winningGame",
      "outputs": [
        {
          "internalType": "address payable[]",
          "name": "winUsers",
          "type": "address[]"
        }
      ],
      "stateMutability": "nonpayable",
      "type": "function"
    },
    {
      "stateMutability": "payable",
      "type": "receive"
    }
  ],
  "bytecode": "0x608060405260405162001e8438038062001e848339818101604052810190620000299190620000c7565b33600660006101000a81548173ffffffffffffffffffffffffffffffffffffffff021916908373ffffffffffffffffffffffffffffffffffffffff16021790555081600081905550806001819055503460028190555050506200010e565b600080fd5b6000819050919050565b620000a1816200008c565b8114620000ad57600080fd5b50565b600081519050620000c18162000096565b92915050565b60008060408385031215620000e157620000e062000087565b5b6000620000f185828601620000b0565b92505060206200010485828601620000b0565b9150509250929050565b611d66806200011e6000396000f3fe60806040526004361061008a5760003560e01c80639414e4df116100595780639414e4df146101c1578063a9059cbb146101dd578063c78096e414610206578063ca52094614610231578063f437bc591461025c576100ca565b8063099c4731146101055780631ef9c56f1461012e57806362b934cc146101595780637faeb7c314610184576100ca565b366100ca577f59e04c3f0d44b7caf6e8ef854b61d9a51cf1960d7a88ff6356cc5e946b4b583233346040516100c09291906112d2565b60405180910390a1005b7f59e04c3f0d44b7caf6e8ef854b61d9a51cf1960d7a88ff6356cc5e946b4b583233346040516100fb92919061135a565b60405180910390a1005b34801561011157600080fd5b5061012c6004803603810190610127919061140b565b610287565b005b34801561013a57600080fd5b5061014361053e565b604051610150919061151b565b60405180910390f35b34801561016557600080fd5b5061016e61063d565b60405161017b919061154c565b60405180910390f35b34801561019057600080fd5b506101ab60048036038101906101a69190611567565b610643565b6040516101b8919061151b565b60405180910390f35b6101db60048036038101906101d69190611567565b610bd6565b005b3480156101e957600080fd5b5061020460048036038101906101ff91906115ec565b610fd7565b005b34801561021257600080fd5b5061021b611088565b604051610228919061154c565b60405180910390f35b34801561023d57600080fd5b5061024661108e565b604051610253919061162c565b60405180910390f35b34801561026857600080fd5b50610271611094565b60405161027e9190611647565b60405180910390f35b600660009054906101000a900473ffffffffffffffffffffffffffffffffffffffff1673ffffffffffffffffffffffffffffffffffffffff163373ffffffffffffffffffffffffffffffffffffffff1614610317576040517f08c379a000000000000000000000000000000000000000000000000000000000815260040161030e906116ae565b60405180910390fd5b60026004805490501461035f576040517f08c379a00000000000000000000000000000000000000000000000000000000081526004016103569061171a565b60405180910390fd5b60001515600360009054906101000a900460ff161515146103b5576040517f08c379a00000000000000000000000000000000000000000000000000000000081526004016103ac90611786565b60405180910390fd5b600054826040516020016103c9919061154c565b604051602081830303815290604052805190602001201461041f576040517f08c379a000000000000000000000000000000000000000000000000000000000815260040161041690611818565b60405180910390fd5b6001548282604051602001610435929190611847565b604051602081830303815290604052805190602001201461048b576040517f08c379a0000000000000000000000000000000000000000000000000000000008152600401610482906118e2565b60405180910390fd5b600061049682610643565b905060008151476104a79190611960565b905060005b82518161ffff16101561051c576104e182848361ffff16815181106104d4576104d3611991565b5b60200260200101516110ba565b610509838261ffff16815181106104fb576104fa611991565b5b602002602001015183610fd7565b8080610514906119c0565b9150506104ac565b506001600360006101000a81548160ff02191690831515021790555050505050565b606060005b6007805490508161ffff16101561063957600460078261ffff168154811061056e5761056d611991565b5b90600052602060002090601091828204019190066002029054906101000a900461ffff1661ffff16815481106105a7576105a6611991565b5b9060005260206000200160000160009054906101000a900473ffffffffffffffffffffffffffffffffffffffff16828261ffff16815181106105ec576105eb611991565b5b602002602001019073ffffffffffffffffffffffffffffffffffffffff16908173ffffffffffffffffffffffffffffffffffffffff16815250508080610631906119c0565b915050610543565b5090565b60015481565b606060008261ffff16108061065e57506103e88261ffff1610155b156106f15760058054806020026020016040519081016040528092919081815260200182805480156106e557602002820191906000526020600020905b8160009054906101000a900473ffffffffffffffffffffffffffffffffffffffff1673ffffffffffffffffffffffffffffffffffffffff168152602001906001019080831161069b575b50505050509050610bd1565b60008261ffff16600460008154811061070d5761070c611991565b5b9060005260206000200160000160149054906101000a900461ffff1661ffff161161077357600460008154811061074757610746611991565b5b9060005260206000200160000160149054906101000a900461ffff168361076e91906119eb565b6107b0565b82600460008154811061078957610788611991565b5b9060005260206000200160000160149054906101000a900461ffff166107af91906119eb565b5b905060008361ffff1660046001815481106107ce576107cd611991565b5b9060005260206000200160000160149054906101000a900461ffff1661ffff161161083457600460018154811061080857610807611991565b5b9060005260206000200160000160149054906101000a900461ffff168461082f91906119eb565b610871565b83600460018154811061084a57610849611991565b5b9060005260206000200160000160149054906101000a900461ffff1661087091906119eb565b5b90508061ffff168261ffff16111561092d576008600460018154811061089a57610899611991565b5b9060005260206000200160000160009054906101000a900473ffffffffffffffffffffffffffffffffffffffff169080600181540180825580915050600190039060005260206000200160009091909190916101000a81548173ffffffffffffffffffffffffffffffffffffffff021916908373ffffffffffffffffffffffffffffffffffffffff160217905550610b33565b8061ffff168261ffff161415610a8c576008600460008154811061095457610953611991565b5b9060005260206000200160000160009054906101000a900473ffffffffffffffffffffffffffffffffffffffff169080600181540180825580915050600190039060005260206000200160009091909190916101000a81548173ffffffffffffffffffffffffffffffffffffffff021916908373ffffffffffffffffffffffffffffffffffffffff160217905550600860046001815481106109f9576109f8611991565b5b9060005260206000200160000160009054906101000a900473ffffffffffffffffffffffffffffffffffffffff169080600181540180825580915050600190039060005260206000200160009091909190916101000a81548173ffffffffffffffffffffffffffffffffffffffff021916908373ffffffffffffffffffffffffffffffffffffffff160217905550610b32565b60086004600081548110610aa357610aa2611991565b5b9060005260206000200160000160009054906101000a900473ffffffffffffffffffffffffffffffffffffffff169080600181540180825580915050600190039060005260206000200160009091909190916101000a81548173ffffffffffffffffffffffffffffffffffffffff021916908373ffffffffffffffffffffffffffffffffffffffff1602179055505b5b610b458261ffff168261ffff16611156565b6008805480602002602001604051908101604052809291908181526020018280548015610bc757602002820191906000526020600020905b8160009054906101000a900473ffffffffffffffffffffffffffffffffffffffff1673ffffffffffffffffffffffffffffffffffffffff1681526020019060010190808311610b7d575b5050505050925050505b919050565b8060006001905060008261ffff161080610bf657506103e88261ffff1610155b15610c0057600090505b6001151581151514610c47576040517f08c379a0000000000000000000000000000000000000000000000000000000008152600401610c3e90611a6b565b60405180910390fd5b6000805b6005805490508160ff161015610ce8573373ffffffffffffffffffffffffffffffffffffffff1660058260ff1681548110610c8957610c88611991565b5b9060005260206000200160009054906101000a900473ffffffffffffffffffffffffffffffffffffffff1673ffffffffffffffffffffffffffffffffffffffff161415610cd557600191505b8080610ce090611a98565b915050610c4b565b506000151581151514610d30576040517f08c379a0000000000000000000000000000000000000000000000000000000008152600401610d2790611b0e565b60405180910390fd5b836000805b6004805490508160ff161015610d9f578261ffff1660048260ff1681548110610d6157610d60611991565b5b9060005260206000200160000160149054906101000a900461ffff1661ffff161415610d8c57600191505b8080610d9790611a98565b915050610d35565b506000151581151514610de7576040517f08c379a0000000000000000000000000000000000000000000000000000000008152600401610dde90611b7a565b60405180910390fd5b60001515600360009054906101000a900460ff16151514610e3d576040517f08c379a0000000000000000000000000000000000000000000000000000000008152600401610e3490611786565b60405180910390fd5b6002543414610e81576040517f08c379a0000000000000000000000000000000000000000000000000000000008152600401610e7890611c0c565b60405180910390fd5b600460405180606001604052803373ffffffffffffffffffffffffffffffffffffffff1681526020018861ffff168152602001600115158152509080600181540180825580915050600190039060005260206000200160009091909190915060008201518160000160006101000a81548173ffffffffffffffffffffffffffffffffffffffff021916908373ffffffffffffffffffffffffffffffffffffffff16021790555060208201518160000160146101000a81548161ffff021916908361ffff16021790555060408201518160000160166101000a81548160ff02191690831515021790555050506005339080600181540180825580915050600190039060005260206000200160009091909190916101000a81548173ffffffffffffffffffffffffffffffffffffffff021916908373ffffffffffffffffffffffffffffffffffffffff160217905550505050505050565b60008273ffffffffffffffffffffffffffffffffffffffff1682604051610ffd90611c5d565b60006040518083038185875af1925050503d806000811461103a576040519150601f19603f3d011682016040523d82523d6000602084013e61103f565b606091505b5050905080611083576040517f08c379a000000000000000000000000000000000000000000000000000000000815260040161107a90611cbe565b60405180910390fd5b505050565b60005481565b60025481565b600660009054906101000a900473ffffffffffffffffffffffffffffffffffffffff1681565b61115282826040516024016110d0929190611cde565b6040516020818303038152906040527f58eb860c000000000000000000000000000000000000000000000000000000007bffffffffffffffffffffffffffffffffffffffffffffffffffffffff19166020820180517bffffffffffffffffffffffffffffffffffffffffffffffffffffffff83818316178352505050506111f2565b5050565b6111ee828260405160240161116c929190611d07565b6040516020818303038152906040527f6c0f6980000000000000000000000000000000000000000000000000000000007bffffffffffffffffffffffffffffffffffffffffffffffffffffffff19166020820180517bffffffffffffffffffffffffffffffffffffffffffffffffffffffff83818316178352505050506111f2565b5050565b60008151905060006a636f6e736f6c652e6c6f679050602083016000808483855afa5050505050565b600073ffffffffffffffffffffffffffffffffffffffff82169050919050565b60006112468261121b565b9050919050565b6112568161123b565b82525050565b6000819050919050565b61126f8161125c565b82525050565b600082825260208201905092915050565b7f5265636569766564207761732063616c6c656400000000000000000000000000600082015250565b60006112bc601383611275565b91506112c782611286565b602082019050919050565b60006060820190506112e7600083018561124d565b6112f46020830184611266565b8181036040830152611305816112af565b90509392505050565b7f46616c6c6261636b207761732063616c6c656400000000000000000000000000600082015250565b6000611344601383611275565b915061134f8261130e565b602082019050919050565b600060608201905061136f600083018561124d565b61137c6020830184611266565b818103604083015261138d81611337565b90509392505050565b600080fd5b6000819050919050565b6113ae8161139b565b81146113b957600080fd5b50565b6000813590506113cb816113a5565b92915050565b600061ffff82169050919050565b6113e8816113d1565b81146113f357600080fd5b50565b600081359050611405816113df565b92915050565b6000806040838503121561142257611421611396565b5b6000611430858286016113bc565b9250506020611441858286016113f6565b9150509250929050565b600081519050919050565b600082825260208201905092915050565b6000819050602082019050919050565b60006114828261121b565b9050919050565b61149281611477565b82525050565b60006114a48383611489565b60208301905092915050565b6000602082019050919050565b60006114c88261144b565b6114d28185611456565b93506114dd83611467565b8060005b8381101561150e5781516114f58882611498565b9750611500836114b0565b9250506001810190506114e1565b5085935050505092915050565b6000602082019050818103600083015261153581846114bd565b905092915050565b6115468161139b565b82525050565b6000602082019050611561600083018461153d565b92915050565b60006020828403121561157d5761157c611396565b5b600061158b848285016113f6565b91505092915050565b61159d81611477565b81146115a857600080fd5b50565b6000813590506115ba81611594565b92915050565b6115c98161125c565b81146115d457600080fd5b50565b6000813590506115e6816115c0565b92915050565b6000806040838503121561160357611602611396565b5b6000611611858286016115ab565b9250506020611622858286016115d7565b9150509250929050565b60006020820190506116416000830184611266565b92915050565b600060208201905061165c600083018461124d565b92915050565b7f6f6e6c792074686520686f737420697320616c6c6f7765640000000000000000600082015250565b6000611698601883611275565b91506116a382611662565b602082019050919050565b600060208201905081810360008301526116c78161168b565b9050919050565b7f7265717569726520322070616c7920677573736520746865206e756d62657200600082015250565b6000611704601f83611275565b915061170f826116ce565b602082019050919050565b60006020820190508181036000830152611733816116f7565b9050919050565b7f7468652067616d652068617320636f6e636c7564656400000000000000000000600082015250565b6000611770601683611275565b915061177b8261173a565b602082019050919050565b6000602082019050818103600083015261179f81611763565b9050919050565b7f746865206e6f6e6365206973206e6f7420657175616c207769746820696e697460008201527f206e6f6e63650000000000000000000000000000000000000000000000000000602082015250565b6000611802602683611275565b915061180d826117a6565b604082019050919050565b60006020820190508181036000830152611831816117f5565b9050919050565b611841816113d1565b82525050565b600060408201905061185c600083018561153d565b6118696020830184611838565b9392505050565b7f746865206e756d626572206973206e6f7420657175616c207769746820696e6960008201527f74206e756d626572000000000000000000000000000000000000000000000000602082015250565b60006118cc602883611275565b91506118d782611870565b604082019050919050565b600060208201905081810360008301526118fb816118bf565b9050919050565b7f4e487b7100000000000000000000000000000000000000000000000000000000600052601260045260246000fd5b7f4e487b7100000000000000000000000000000000000000000000000000000000600052601160045260246000fd5b600061196b8261125c565b91506119768361125c565b92508261198657611985611902565b5b828204905092915050565b7f4e487b7100000000000000000000000000000000000000000000000000000000600052603260045260246000fd5b60006119cb826113d1565b915061ffff8214156119e0576119df611931565b5b600182019050919050565b60006119f6826113d1565b9150611a01836113d1565b925082821015611a1457611a13611931565b5b828203905092915050565b7f746865206e756d626572206973206f7574206f662072616e6765000000000000600082015250565b6000611a55601a83611275565b9150611a6082611a1f565b602082019050919050565b60006020820190508181036000830152611a8481611a48565b9050919050565b600060ff82169050919050565b6000611aa382611a8b565b915060ff821415611ab757611ab6611931565b5b600182019050919050565b7f6f6e6c79206775657373206f6e63650000000000000000000000000000000000600082015250565b6000611af8600f83611275565b9150611b0382611ac2565b602082019050919050565b60006020820190508181036000830152611b2781611aeb565b9050919050565b7f746865206e756d62657220686173206265656e20677565737365640000000000600082015250565b6000611b64601b83611275565b9150611b6f82611b2e565b602082019050919050565b60006020820190508181036000830152611b9381611b57565b9050919050565b7f646f6e6e6f742073656e64207468652073616d652076616c756520776974682060008201527f74686520686f7374000000000000000000000000000000000000000000000000602082015250565b6000611bf6602883611275565b9150611c0182611b9a565b604082019050919050565b60006020820190508181036000830152611c2581611be9565b9050919050565b600081905092915050565b50565b6000611c47600083611c2c565b9150611c5282611c37565b600082019050919050565b6000611c6882611c3a565b9150819050919050565b7f4661696c656420746f2073656e64204574686572000000000000000000000000600082015250565b6000611ca8601483611275565b9150611cb382611c72565b602082019050919050565b60006020820190508181036000830152611cd781611c9b565b9050919050565b6000604082019050611cf36000830185611266565b611d00602083018461124d565b9392505050565b6000604082019050611d1c6000830185611266565b611d296020830184611266565b939250505056fea26469706673582212205665b75aa7f6fe47ee182bb477056449a89226cae11731ab8c575729f4384fb764736f6c63430008090033",
  "linkReferences": {},
  "deployedLinkReferences": {}
}