{
  "_format": "hh-sol-artifact-1",
  "contractName": "GuessNumber",
  "sourceName": "contracts/GuessNumber.sol",
  "abi": [
    {
      "inputs": [
        {
          "internalType": "bytes32",
          "name": "_nonce",
          "type": "bytes32"
        },
        {
          "internalType": "uint16",
          "name": "_num",
          "type": "uint16"
        }
      ],
      "stateMutability": "payable",
      "type": "constructor"
    },
    {
      "inputs": [],
      "name": "getWinnerAddresses",
      "outputs": [
        {
          "internalType": "address payable[]",
          "name": "winUsers",
          "type": "address[]"
        }
      ],
      "stateMutability": "view",
      "type": "function"
    },
    {
      "inputs": [
        {
          "internalType": "uint16",
          "name": "_num",
          "type": "uint16"
        }
      ],
      "name": "guess",
      "outputs": [],
      "stateMutability": "payable",
      "type": "function"
    },
    {
      "inputs": [],
      "name": "host",
      "outputs": [
        {
          "internalType": "address",
          "name": "",
          "type": "address"
        }
      ],
      "stateMutability": "view",
      "type": "function"
    },
    {
      "inputs": [],
      "name": "initDepositValue",
      "outputs": [
        {
          "internalType": "uint256",
          "name": "",
          "type": "uint256"
        }
      ],
      "stateMutability": "view",
      "type": "function"
    },
    {
      "inputs": [],
      "name": "nonceHash",
      "outputs": [
        {
          "internalType": "bytes32",
          "name": "",
          "type": "bytes32"
        }
      ],
      "stateMutability": "view",
      "type": "function"
    },
    {
      "inputs": [],
      "name": "nonceNumHash",
      "outputs": [
        {
          "internalType": "bytes32",
          "name": "",
          "type": "bytes32"
        }
      ],
      "stateMutability": "view",
      "type": "function"
    },
    {
      "inputs": [
        {
          "internalType": "bytes32",
          "name": "_nonce",
          "type": "bytes32"
        },
        {
          "internalType": "uint16",
          "name": "_num",
          "type": "uint16"
        }
      ],
      "name": "reveal",
      "outputs": [],
      "stateMutability": "nonpayable",
      "type": "function"
    },
    {
      "inputs": [
        {
          "internalType": "uint16",
          "name": "_num",
          "type": "uint16"
        }
      ],
      "name": "winningGame",
      "outputs": [
        {
          "internalType": "address payable[]",
          "name": "winUsers",
          "type": "address[]"
        }
      ],
      "stateMutability": "nonpayable",
      "type": "function"
    }
  ],
  "bytecode": "0x608060405260405162001c0538038062001c05833981810160405281019062000029919062000158565b33600660006101000a81548173ffffffffffffffffffffffffffffffffffffffff021916908373ffffffffffffffffffffffffffffffffffffffff160217905550816040516020016200007d9190620001b0565b604051602081830303815290604052805190602001206000819055508181604051602001620000ae929190620001de565b604051602081830303815290604052805190602001206001819055503460028190555050506200020b565b600080fd5b6000819050919050565b620000f381620000de565b8114620000ff57600080fd5b50565b6000815190506200011381620000e8565b92915050565b600061ffff82169050919050565b620001328162000119565b81146200013e57600080fd5b50565b600081519050620001528162000127565b92915050565b60008060408385031215620001725762000171620000d9565b5b6000620001828582860162000102565b9250506020620001958582860162000141565b9150509250929050565b620001aa81620000de565b82525050565b6000602082019050620001c760008301846200019f565b92915050565b620001d88162000119565b82525050565b6000604082019050620001f560008301856200019f565b620002046020830184620001cd565b9392505050565b6119ea806200021b6000396000f3fe60806040526004361061007b5760003560e01c80639414e4df1161004e5780639414e4df1461013c578063c78096e414610158578063ca52094614610183578063f437bc59146101ae5761007b565b8063099c4731146100805780631ef9c56f146100a957806362b934cc146100d45780637faeb7c3146100ff575b600080fd5b34801561008c57600080fd5b506100a760048036038101906100a2919061116e565b6101d9565b005b3480156100b557600080fd5b506100be6104cd565b6040516100cb919061129e565b60405180910390f35b3480156100e057600080fd5b506100e96105cc565b6040516100f691906112cf565b60405180910390f35b34801561010b57600080fd5b50610126600480360381019061012191906112ea565b6105d2565b604051610133919061129e565b60405180910390f35b610156600480360381019061015191906112ea565b610b65565b005b34801561016457600080fd5b5061016d610f66565b60405161017a91906112cf565b60405180910390f35b34801561018f57600080fd5b50610198610f6c565b6040516101a59190611330565b60405180910390f35b3480156101ba57600080fd5b506101c3610f72565b6040516101d0919061136c565b60405180910390f35b600660009054906101000a900473ffffffffffffffffffffffffffffffffffffffff1673ffffffffffffffffffffffffffffffffffffffff163373ffffffffffffffffffffffffffffffffffffffff1614610269576040517f08c379a0000000000000000000000000000000000000000000000000000000008152600401610260906113e4565b60405180910390fd5b6002600480549050146102b1576040517f08c379a00000000000000000000000000000000000000000000000000000000081526004016102a890611450565b60405180910390fd5b60001515600360009054906101000a900460ff16151514610307576040517f08c379a00000000000000000000000000000000000000000000000000000000081526004016102fe906114bc565b60405180910390fd5b6000548260405160200161031b91906112cf565b6040516020818303038152906040528051906020012014610371576040517f08c379a00000000000000000000000000000000000000000000000000000000081526004016103689061154e565b60405180910390fd5b600154828260405160200161038792919061157d565b60405160208183030381529060405280519060200120146103dd576040517f08c379a00000000000000000000000000000000000000000000000000000000081526004016103d490611618565b60405180910390fd5b60006103e8826105d2565b905060008151476103f99190611696565b905060005b82518161ffff1610156104ab5761043382848361ffff1681518110610426576104256116c7565b5b6020026020010151610f98565b828161ffff168151811061044a576104496116c7565b5b602002602001015173ffffffffffffffffffffffffffffffffffffffff166108fc839081150290604051600060405180830381858888f19350505050158015610497573d6000803e3d6000fd5b5080806104a3906116f6565b9150506103fe565b506001600360006101000a81548160ff02191690831515021790555050505050565b606060005b6007805490508161ffff1610156105c857600460078261ffff16815481106104fd576104fc6116c7565b5b90600052602060002090601091828204019190066002029054906101000a900461ffff1661ffff1681548110610536576105356116c7565b5b9060005260206000200160000160009054906101000a900473ffffffffffffffffffffffffffffffffffffffff16828261ffff168151811061057b5761057a6116c7565b5b602002602001019073ffffffffffffffffffffffffffffffffffffffff16908173ffffffffffffffffffffffffffffffffffffffff168152505080806105c0906116f6565b9150506104d2565b5090565b60015481565b606060008261ffff1610806105ed57506103e88261ffff1610155b1561068057600580548060200260200160405190810160405280929190818152602001828054801561067457602002820191906000526020600020905b8160009054906101000a900473ffffffffffffffffffffffffffffffffffffffff1673ffffffffffffffffffffffffffffffffffffffff168152602001906001019080831161062a575b50505050509050610b60565b60008261ffff16600460008154811061069c5761069b6116c7565b5b9060005260206000200160000160149054906101000a900461ffff1661ffff16116107025760046000815481106106d6576106d56116c7565b5b9060005260206000200160000160149054906101000a900461ffff16836106fd9190611721565b61073f565b826004600081548110610718576107176116c7565b5b9060005260206000200160000160149054906101000a900461ffff1661073e9190611721565b5b905060008361ffff16600460018154811061075d5761075c6116c7565b5b9060005260206000200160000160149054906101000a900461ffff1661ffff16116107c3576004600181548110610797576107966116c7565b5b9060005260206000200160000160149054906101000a900461ffff16846107be9190611721565b610800565b8360046001815481106107d9576107d86116c7565b5b9060005260206000200160000160149054906101000a900461ffff166107ff9190611721565b5b90508061ffff168261ffff1611156108bc5760086004600181548110610829576108286116c7565b5b9060005260206000200160000160009054906101000a900473ffffffffffffffffffffffffffffffffffffffff169080600181540180825580915050600190039060005260206000200160009091909190916101000a81548173ffffffffffffffffffffffffffffffffffffffff021916908373ffffffffffffffffffffffffffffffffffffffff160217905550610ac2565b8061ffff168261ffff161415610a1b57600860046000815481106108e3576108e26116c7565b5b9060005260206000200160000160009054906101000a900473ffffffffffffffffffffffffffffffffffffffff169080600181540180825580915050600190039060005260206000200160009091909190916101000a81548173ffffffffffffffffffffffffffffffffffffffff021916908373ffffffffffffffffffffffffffffffffffffffff16021790555060086004600181548110610988576109876116c7565b5b9060005260206000200160000160009054906101000a900473ffffffffffffffffffffffffffffffffffffffff169080600181540180825580915050600190039060005260206000200160009091909190916101000a81548173ffffffffffffffffffffffffffffffffffffffff021916908373ffffffffffffffffffffffffffffffffffffffff160217905550610ac1565b60086004600081548110610a3257610a316116c7565b5b9060005260206000200160000160009054906101000a900473ffffffffffffffffffffffffffffffffffffffff169080600181540180825580915050600190039060005260206000200160009091909190916101000a81548173ffffffffffffffffffffffffffffffffffffffff021916908373ffffffffffffffffffffffffffffffffffffffff1602179055505b5b610ad48261ffff168261ffff16611034565b6008805480602002602001604051908101604052809291908181526020018280548015610b5657602002820191906000526020600020905b8160009054906101000a900473ffffffffffffffffffffffffffffffffffffffff1673ffffffffffffffffffffffffffffffffffffffff1681526020019060010190808311610b0c575b5050505050925050505b919050565b8060006001905060008261ffff161080610b8557506103e88261ffff1610155b15610b8f57600090505b6001151581151514610bd6576040517f08c379a0000000000000000000000000000000000000000000000000000000008152600401610bcd906117a1565b60405180910390fd5b6000805b6005805490508160ff161015610c77573373ffffffffffffffffffffffffffffffffffffffff1660058260ff1681548110610c1857610c176116c7565b5b9060005260206000200160009054906101000a900473ffffffffffffffffffffffffffffffffffffffff1673ffffffffffffffffffffffffffffffffffffffff161415610c6457600191505b8080610c6f906117ce565b915050610bda565b506000151581151514610cbf576040517f08c379a0000000000000000000000000000000000000000000000000000000008152600401610cb690611844565b60405180910390fd5b836000805b6004805490508160ff161015610d2e578261ffff1660048260ff1681548110610cf057610cef6116c7565b5b9060005260206000200160000160149054906101000a900461ffff1661ffff161415610d1b57600191505b8080610d26906117ce565b915050610cc4565b506000151581151514610d76576040517f08c379a0000000000000000000000000000000000000000000000000000000008152600401610d6d906118b0565b60405180910390fd5b60001515600360009054906101000a900460ff16151514610dcc576040517f08c379a0000000000000000000000000000000000000000000000000000000008152600401610dc3906114bc565b60405180910390fd5b6002543414610e10576040517f08c379a0000000000000000000000000000000000000000000000000000000008152600401610e0790611942565b60405180910390fd5b600460405180606001604052803373ffffffffffffffffffffffffffffffffffffffff1681526020018861ffff168152602001600115158152509080600181540180825580915050600190039060005260206000200160009091909190915060008201518160000160006101000a81548173ffffffffffffffffffffffffffffffffffffffff021916908373ffffffffffffffffffffffffffffffffffffffff16021790555060208201518160000160146101000a81548161ffff021916908361ffff16021790555060408201518160000160166101000a81548160ff02191690831515021790555050506005339080600181540180825580915050600190039060005260206000200160009091909190916101000a81548173ffffffffffffffffffffffffffffffffffffffff021916908373ffffffffffffffffffffffffffffffffffffffff160217905550505050505050565b60005481565b60025481565b600660009054906101000a900473ffffffffffffffffffffffffffffffffffffffff1681565b6110308282604051602401610fae929190611962565b6040516020818303038152906040527f58eb860c000000000000000000000000000000000000000000000000000000007bffffffffffffffffffffffffffffffffffffffffffffffffffffffff19166020820180517bffffffffffffffffffffffffffffffffffffffffffffffffffffffff83818316178352505050506110d0565b5050565b6110cc828260405160240161104a92919061198b565b6040516020818303038152906040527f6c0f6980000000000000000000000000000000000000000000000000000000007bffffffffffffffffffffffffffffffffffffffffffffffffffffffff19166020820180517bffffffffffffffffffffffffffffffffffffffffffffffffffffffff83818316178352505050506110d0565b5050565b60008151905060006a636f6e736f6c652e6c6f679050602083016000808483855afa5050505050565b600080fd5b6000819050919050565b611111816110fe565b811461111c57600080fd5b50565b60008135905061112e81611108565b92915050565b600061ffff82169050919050565b61114b81611134565b811461115657600080fd5b50565b60008135905061116881611142565b92915050565b60008060408385031215611185576111846110f9565b5b60006111938582860161111f565b92505060206111a485828601611159565b9150509250929050565b600081519050919050565b600082825260208201905092915050565b6000819050602082019050919050565b600073ffffffffffffffffffffffffffffffffffffffff82169050919050565b6000611205826111da565b9050919050565b611215816111fa565b82525050565b6000611227838361120c565b60208301905092915050565b6000602082019050919050565b600061124b826111ae565b61125581856111b9565b9350611260836111ca565b8060005b83811015611291578151611278888261121b565b975061128383611233565b925050600181019050611264565b5085935050505092915050565b600060208201905081810360008301526112b88184611240565b905092915050565b6112c9816110fe565b82525050565b60006020820190506112e460008301846112c0565b92915050565b600060208284031215611300576112ff6110f9565b5b600061130e84828501611159565b91505092915050565b6000819050919050565b61132a81611317565b82525050565b60006020820190506113456000830184611321565b92915050565b6000611356826111da565b9050919050565b6113668161134b565b82525050565b6000602082019050611381600083018461135d565b92915050565b600082825260208201905092915050565b7f6f6e6c792074686520686f737420697320616c6c6f7765640000000000000000600082015250565b60006113ce601883611387565b91506113d982611398565b602082019050919050565b600060208201905081810360008301526113fd816113c1565b9050919050565b7f7265717569726520322070616c7920677573736520746865206e756d62657200600082015250565b600061143a601f83611387565b915061144582611404565b602082019050919050565b600060208201905081810360008301526114698161142d565b9050919050565b7f7468652067616d652068617320636f6e636c7564656400000000000000000000600082015250565b60006114a6601683611387565b91506114b182611470565b602082019050919050565b600060208201905081810360008301526114d581611499565b9050919050565b7f746865206e6f6e6365206973206e6f7420657175616c207769746820696e697460008201527f206e6f6e63650000000000000000000000000000000000000000000000000000602082015250565b6000611538602683611387565b9150611543826114dc565b604082019050919050565b600060208201905081810360008301526115678161152b565b9050919050565b61157781611134565b82525050565b600060408201905061159260008301856112c0565b61159f602083018461156e565b9392505050565b7f746865206e756d626572206973206e6f7420657175616c207769746820696e6960008201527f74206e756d626572000000000000000000000000000000000000000000000000602082015250565b6000611602602883611387565b915061160d826115a6565b604082019050919050565b60006020820190508181036000830152611631816115f5565b9050919050565b7f4e487b7100000000000000000000000000000000000000000000000000000000600052601260045260246000fd5b7f4e487b7100000000000000000000000000000000000000000000000000000000600052601160045260246000fd5b60006116a182611317565b91506116ac83611317565b9250826116bc576116bb611638565b5b828204905092915050565b7f4e487b7100000000000000000000000000000000000000000000000000000000600052603260045260246000fd5b600061170182611134565b915061ffff82141561171657611715611667565b5b600182019050919050565b600061172c82611134565b915061173783611134565b92508282101561174a57611749611667565b5b828203905092915050565b7f746865206e756d626572206973206f7574206f662072616e6765000000000000600082015250565b600061178b601a83611387565b915061179682611755565b602082019050919050565b600060208201905081810360008301526117ba8161177e565b9050919050565b600060ff82169050919050565b60006117d9826117c1565b915060ff8214156117ed576117ec611667565b5b600182019050919050565b7f6f6e6c79206775657373206f6e63650000000000000000000000000000000000600082015250565b600061182e600f83611387565b9150611839826117f8565b602082019050919050565b6000602082019050818103600083015261185d81611821565b9050919050565b7f746865206e756d62657220686173206265656e20677565737365640000000000600082015250565b600061189a601b83611387565b91506118a582611864565b602082019050919050565b600060208201905081810360008301526118c98161188d565b9050919050565b7f646f6e6e6f742073656e64207468652073616d652076616c756520776974682060008201527f74686520686f7374000000000000000000000000000000000000000000000000602082015250565b600061192c602883611387565b9150611937826118d0565b604082019050919050565b6000602082019050818103600083015261195b8161191f565b9050919050565b60006040820190506119776000830185611321565b611984602083018461135d565b9392505050565b60006040820190506119a06000830185611321565b6119ad6020830184611321565b939250505056fea264697066735822122081162066c3621c1c799f72a0d8f2c9b89563c1bca93c0aca0e25cd8a07d768e864736f6c63430008090033",
  "linkReferences": {},
  "deployedLinkReferences": {}
}